{
  "contracts/shapecal.sol": {
    "shapecal": {
      "abi": [
        {
          "inputs": [
            {
              "internalType": "uint256",
              "name": "width",
              "type": "uint256"
            },
            {
              "internalType": "uint256",
              "name": "height",
              "type": "uint256"
            }
          ],
          "name": "calRectangle",
          "outputs": [
            {
              "internalType": "uint256",
              "name": "",
              "type": "uint256"
            }
          ],
          "stateMutability": "pure",
          "type": "function"
        },
        {
          "inputs": [
            {
              "internalType": "uint256",
              "name": "sides",
              "type": "uint256"
            }
          ],
          "name": "calSquare",
          "outputs": [
            {
              "internalType": "uint256",
              "name": "",
              "type": "uint256"
            }
          ],
          "stateMutability": "pure",
          "type": "function"
        },
        {
          "inputs": [
            {
              "internalType": "uint256",
              "name": "base",
              "type": "uint256"
            },
            {
              "internalType": "uint256",
              "name": "height",
              "type": "uint256"
            }
          ],
          "name": "calTriangle",
          "outputs": [
            {
              "internalType": "uint256",
              "name": "",
              "type": "uint256"
            }
          ],
          "stateMutability": "pure",
          "type": "function"
        }
      ],
      "evm": {
        "bytecode": {
          "linkReferences": {},
          "object": "608060405234801561001057600080fd5b506104d8806100206000396000f3fe608060405234801561001057600080fd5b50600436106100415760003560e01c80630c8fc94d14610046578063ad2c71e314610076578063ed2a7600146100a6575b600080fd5b610060600480360381019061005b91906101af565b6100d6565b60405161006d91906101fe565b60405180910390f35b610090600480360381019061008b91906101af565b610117565b60405161009d91906101fe565b60405180910390f35b6100c060048036038101906100bb9190610219565b61014c565b6040516100cd91906101fe565b60405180910390f35b60008083116100e457600080fd5b600082116100f157600080fd5b6000600283856101019190610275565b61010b91906102e6565b90508091505092915050565b600080831161012557600080fd5b6000821161013257600080fd5b600082846101409190610275565b90508091505092915050565b600080821161015a57600080fd5b60006002836101699190610457565b905080915050919050565b600080fd5b6000819050919050565b61018c81610179565b811461019757600080fd5b50565b6000813590506101a981610183565b92915050565b600080604083850312156101c6576101c5610174565b5b60006101d48582860161019a565b92505060206101e58582860161019a565b9150509250929050565b6101f881610179565b82525050565b600060208201905061021360008301846101ef565b92915050565b60006020828403121561022f5761022e610174565b5b600061023d8482850161019a565b91505092915050565b7f4e487b7100000000000000000000000000000000000000000000000000000000600052601160045260246000fd5b600061028082610179565b915061028b83610179565b925082820261029981610179565b915082820484148315176102b0576102af610246565b5b5092915050565b7f4e487b7100000000000000000000000000000000000000000000000000000000600052601260045260246000fd5b60006102f182610179565b91506102fc83610179565b92508261030c5761030b6102b7565b5b828204905092915050565b60008160011c9050919050565b6000808291508390505b600185111561036e5780860481111561034a57610349610246565b5b60018516156103595780820291505b808102905061036785610317565b945061032e565b94509492505050565b6000826103875760019050610443565b816103955760009050610443565b81600181146103ab57600281146103b5576103e4565b6001915050610443565b60ff8411156103c7576103c6610246565b5b8360020a9150848211156103de576103dd610246565b5b50610443565b5060208310610133831016604e8410600b84101617156104195782820a90508381111561041457610413610246565b5b610443565b6104268484846001610324565b9250905081840481111561043d5761043c610246565b5b81810290505b9392505050565b600060ff82169050919050565b600061046282610179565b915061046d8361044a565b925061049a7fffffffffffffffffffffffffffffffffffffffffffffffffffffffffffffffff8484610377565b90509291505056fea264697066735822122063ec2781dab213e8fd94897419976af57989b51c4309db2947cef7776113608964736f6c63430008180033",
          "opcodes": "PUSH1 0x80 PUSH1 0x40 MSTORE CALLVALUE DUP1 ISZERO PUSH2 0x10 JUMPI PUSH1 0x0 DUP1 REVERT JUMPDEST POP PUSH2 0x4D8 DUP1 PUSH2 0x20 PUSH1 0x0 CODECOPY PUSH1 0x0 RETURN INVALID PUSH1 0x80 PUSH1 0x40 MSTORE CALLVALUE DUP1 ISZERO PUSH2 0x10 JUMPI PUSH1 0x0 DUP1 REVERT JUMPDEST POP PUSH1 0x4 CALLDATASIZE LT PUSH2 0x41 JUMPI PUSH1 0x0 CALLDATALOAD PUSH1 0xE0 SHR DUP1 PUSH4 0xC8FC94D EQ PUSH2 0x46 JUMPI DUP1 PUSH4 0xAD2C71E3 EQ PUSH2 0x76 JUMPI DUP1 PUSH4 0xED2A7600 EQ PUSH2 0xA6 JUMPI JUMPDEST PUSH1 0x0 DUP1 REVERT JUMPDEST PUSH2 0x60 PUSH1 0x4 DUP1 CALLDATASIZE SUB DUP2 ADD SWAP1 PUSH2 0x5B SWAP2 SWAP1 PUSH2 0x1AF JUMP JUMPDEST PUSH2 0xD6 JUMP JUMPDEST PUSH1 0x40 MLOAD PUSH2 0x6D SWAP2 SWAP1 PUSH2 0x1FE JUMP JUMPDEST PUSH1 0x40 MLOAD DUP1 SWAP2 SUB SWAP1 RETURN JUMPDEST PUSH2 0x90 PUSH1 0x4 DUP1 CALLDATASIZE SUB DUP2 ADD SWAP1 PUSH2 0x8B SWAP2 SWAP1 PUSH2 0x1AF JUMP JUMPDEST PUSH2 0x117 JUMP JUMPDEST PUSH1 0x40 MLOAD PUSH2 0x9D SWAP2 SWAP1 PUSH2 0x1FE JUMP JUMPDEST PUSH1 0x40 MLOAD DUP1 SWAP2 SUB SWAP1 RETURN JUMPDEST PUSH2 0xC0 PUSH1 0x4 DUP1 CALLDATASIZE SUB DUP2 ADD SWAP1 PUSH2 0xBB SWAP2 SWAP1 PUSH2 0x219 JUMP JUMPDEST PUSH2 0x14C JUMP JUMPDEST PUSH1 0x40 MLOAD PUSH2 0xCD SWAP2 SWAP1 PUSH2 0x1FE JUMP JUMPDEST PUSH1 0x40 MLOAD DUP1 SWAP2 SUB SWAP1 RETURN JUMPDEST PUSH1 0x0 DUP1 DUP4 GT PUSH2 0xE4 JUMPI PUSH1 0x0 DUP1 REVERT JUMPDEST PUSH1 0x0 DUP3 GT PUSH2 0xF1 JUMPI PUSH1 0x0 DUP1 REVERT JUMPDEST PUSH1 0x0 PUSH1 0x2 DUP4 DUP6 PUSH2 0x101 SWAP2 SWAP1 PUSH2 0x275 JUMP JUMPDEST PUSH2 0x10B SWAP2 SWAP1 PUSH2 0x2E6 JUMP JUMPDEST SWAP1 POP DUP1 SWAP2 POP POP SWAP3 SWAP2 POP POP JUMP JUMPDEST PUSH1 0x0 DUP1 DUP4 GT PUSH2 0x125 JUMPI PUSH1 0x0 DUP1 REVERT JUMPDEST PUSH1 0x0 DUP3 GT PUSH2 0x132 JUMPI PUSH1 0x0 DUP1 REVERT JUMPDEST PUSH1 0x0 DUP3 DUP5 PUSH2 0x140 SWAP2 SWAP1 PUSH2 0x275 JUMP JUMPDEST SWAP1 POP DUP1 SWAP2 POP POP SWAP3 SWAP2 POP POP JUMP JUMPDEST PUSH1 0x0 DUP1 DUP3 GT PUSH2 0x15A JUMPI PUSH1 0x0 DUP1 REVERT JUMPDEST PUSH1 0x0 PUSH1 0x2 DUP4 PUSH2 0x169 SWAP2 SWAP1 PUSH2 0x457 JUMP JUMPDEST SWAP1 POP DUP1 SWAP2 POP POP SWAP2 SWAP1 POP JUMP JUMPDEST PUSH1 0x0 DUP1 REVERT JUMPDEST PUSH1 0x0 DUP2 SWAP1 POP SWAP2 SWAP1 POP JUMP JUMPDEST PUSH2 0x18C DUP2 PUSH2 0x179 JUMP JUMPDEST DUP2 EQ PUSH2 0x197 JUMPI PUSH1 0x0 DUP1 REVERT JUMPDEST POP JUMP JUMPDEST PUSH1 0x0 DUP2 CALLDATALOAD SWAP1 POP PUSH2 0x1A9 DUP2 PUSH2 0x183 JUMP JUMPDEST SWAP3 SWAP2 POP POP JUMP JUMPDEST PUSH1 0x0 DUP1 PUSH1 0x40 DUP4 DUP6 SUB SLT ISZERO PUSH2 0x1C6 JUMPI PUSH2 0x1C5 PUSH2 0x174 JUMP JUMPDEST JUMPDEST PUSH1 0x0 PUSH2 0x1D4 DUP6 DUP3 DUP7 ADD PUSH2 0x19A JUMP JUMPDEST SWAP3 POP POP PUSH1 0x20 PUSH2 0x1E5 DUP6 DUP3 DUP7 ADD PUSH2 0x19A JUMP JUMPDEST SWAP2 POP POP SWAP3 POP SWAP3 SWAP1 POP JUMP JUMPDEST PUSH2 0x1F8 DUP2 PUSH2 0x179 JUMP JUMPDEST DUP3 MSTORE POP POP JUMP JUMPDEST PUSH1 0x0 PUSH1 0x20 DUP3 ADD SWAP1 POP PUSH2 0x213 PUSH1 0x0 DUP4 ADD DUP5 PUSH2 0x1EF JUMP JUMPDEST SWAP3 SWAP2 POP POP JUMP JUMPDEST PUSH1 0x0 PUSH1 0x20 DUP3 DUP5 SUB SLT ISZERO PUSH2 0x22F JUMPI PUSH2 0x22E PUSH2 0x174 JUMP JUMPDEST JUMPDEST PUSH1 0x0 PUSH2 0x23D DUP5 DUP3 DUP6 ADD PUSH2 0x19A JUMP JUMPDEST SWAP2 POP POP SWAP3 SWAP2 POP POP JUMP JUMPDEST PUSH32 0x4E487B7100000000000000000000000000000000000000000000000000000000 PUSH1 0x0 MSTORE PUSH1 0x11 PUSH1 0x4 MSTORE PUSH1 0x24 PUSH1 0x0 REVERT JUMPDEST PUSH1 0x0 PUSH2 0x280 DUP3 PUSH2 0x179 JUMP JUMPDEST SWAP2 POP PUSH2 0x28B DUP4 PUSH2 0x179 JUMP JUMPDEST SWAP3 POP DUP3 DUP3 MUL PUSH2 0x299 DUP2 PUSH2 0x179 JUMP JUMPDEST SWAP2 POP DUP3 DUP3 DIV DUP5 EQ DUP4 ISZERO OR PUSH2 0x2B0 JUMPI PUSH2 0x2AF PUSH2 0x246 JUMP JUMPDEST JUMPDEST POP SWAP3 SWAP2 POP POP JUMP JUMPDEST PUSH32 0x4E487B7100000000000000000000000000000000000000000000000000000000 PUSH1 0x0 MSTORE PUSH1 0x12 PUSH1 0x4 MSTORE PUSH1 0x24 PUSH1 0x0 REVERT JUMPDEST PUSH1 0x0 PUSH2 0x2F1 DUP3 PUSH2 0x179 JUMP JUMPDEST SWAP2 POP PUSH2 0x2FC DUP4 PUSH2 0x179 JUMP JUMPDEST SWAP3 POP DUP3 PUSH2 0x30C JUMPI PUSH2 0x30B PUSH2 0x2B7 JUMP JUMPDEST JUMPDEST DUP3 DUP3 DIV SWAP1 POP SWAP3 SWAP2 POP POP JUMP JUMPDEST PUSH1 0x0 DUP2 PUSH1 0x1 SHR SWAP1 POP SWAP2 SWAP1 POP JUMP JUMPDEST PUSH1 0x0 DUP1 DUP3 SWAP2 POP DUP4 SWAP1 POP JUMPDEST PUSH1 0x1 DUP6 GT ISZERO PUSH2 0x36E JUMPI DUP1 DUP7 DIV DUP2 GT ISZERO PUSH2 0x34A JUMPI PUSH2 0x349 PUSH2 0x246 JUMP JUMPDEST JUMPDEST PUSH1 0x1 DUP6 AND ISZERO PUSH2 0x359 JUMPI DUP1 DUP3 MUL SWAP2 POP JUMPDEST DUP1 DUP2 MUL SWAP1 POP PUSH2 0x367 DUP6 PUSH2 0x317 JUMP JUMPDEST SWAP5 POP PUSH2 0x32E JUMP JUMPDEST SWAP5 POP SWAP5 SWAP3 POP POP POP JUMP JUMPDEST PUSH1 0x0 DUP3 PUSH2 0x387 JUMPI PUSH1 0x1 SWAP1 POP PUSH2 0x443 JUMP JUMPDEST DUP2 PUSH2 0x395 JUMPI PUSH1 0x0 SWAP1 POP PUSH2 0x443 JUMP JUMPDEST DUP2 PUSH1 0x1 DUP2 EQ PUSH2 0x3AB JUMPI PUSH1 0x2 DUP2 EQ PUSH2 0x3B5 JUMPI PUSH2 0x3E4 JUMP JUMPDEST PUSH1 0x1 SWAP2 POP POP PUSH2 0x443 JUMP JUMPDEST PUSH1 0xFF DUP5 GT ISZERO PUSH2 0x3C7 JUMPI PUSH2 0x3C6 PUSH2 0x246 JUMP JUMPDEST JUMPDEST DUP4 PUSH1 0x2 EXP SWAP2 POP DUP5 DUP3 GT ISZERO PUSH2 0x3DE JUMPI PUSH2 0x3DD PUSH2 0x246 JUMP JUMPDEST JUMPDEST POP PUSH2 0x443 JUMP JUMPDEST POP PUSH1 0x20 DUP4 LT PUSH2 0x133 DUP4 LT AND PUSH1 0x4E DUP5 LT PUSH1 0xB DUP5 LT AND OR ISZERO PUSH2 0x419 JUMPI DUP3 DUP3 EXP SWAP1 POP DUP4 DUP2 GT ISZERO PUSH2 0x414 JUMPI PUSH2 0x413 PUSH2 0x246 JUMP JUMPDEST JUMPDEST PUSH2 0x443 JUMP JUMPDEST PUSH2 0x426 DUP5 DUP5 DUP5 PUSH1 0x1 PUSH2 0x324 JUMP JUMPDEST SWAP3 POP SWAP1 POP DUP2 DUP5 DIV DUP2 GT ISZERO PUSH2 0x43D JUMPI PUSH2 0x43C PUSH2 0x246 JUMP JUMPDEST JUMPDEST DUP2 DUP2 MUL SWAP1 POP JUMPDEST SWAP4 SWAP3 POP POP POP JUMP JUMPDEST PUSH1 0x0 PUSH1 0xFF DUP3 AND SWAP1 POP SWAP2 SWAP1 POP JUMP JUMPDEST PUSH1 0x0 PUSH2 0x462 DUP3 PUSH2 0x179 JUMP JUMPDEST SWAP2 POP PUSH2 0x46D DUP4 PUSH2 0x44A JUMP JUMPDEST SWAP3 POP PUSH2 0x49A PUSH32 0xFFFFFFFFFFFFFFFFFFFFFFFFFFFFFFFFFFFFFFFFFFFFFFFFFFFFFFFFFFFFFFFF DUP5 DUP5 PUSH2 0x377 JUMP JUMPDEST SWAP1 POP SWAP3 SWAP2 POP POP JUMP INVALID LOG2 PUSH5 0x6970667358 0x22 SLT KECCAK256 PUSH4 0xEC2781DA 0xB2 SGT 0xE8 REVERT SWAP5 DUP10 PUSH21 0x19976AF57989B51C4309DB2947CEF7776113608964 PUSH20 0x6F6C634300081800330000000000000000000000 "
        },
        "methodIdentifiers": {
          "calRectangle(uint256,uint256)": "ad2c71e3",
          "calSquare(uint256)": "ed2a7600",
          "calTriangle(uint256,uint256)": "0c8fc94d"
        }
      }
    }
  }
}